{
  "_format": "hh-sol-artifact-1",
  "contractName": "PredictionMarket",
  "sourceName": "contracts/PredictionMarket.sol",
  "abi": [
    {
      "inputs": [
        {
          "internalType": "address",
          "name": "_oracleRegistry",
          "type": "address"
        },
        {
          "internalType": "string",
          "name": "_question",
          "type": "string"
        },
        {
          "internalType": "uint256",
          "name": "_bettingDuration",
          "type": "uint256"
        },
        {
          "internalType": "address[]",
          "name": "_oracles",
          "type": "address[]"
        },
        {
          "internalType": "address",
          "name": "_verifier",
          "type": "address"
        },
        {
          "internalType": "address",
          "name": "_poseidon",
          "type": "address"
        }
      ],
      "stateMutability": "nonpayable",
      "type": "constructor"
    },
    {
      "anonymous": false,
      "inputs": [
        {
          "indexed": false,
          "internalType": "uint256",
          "name": "timestamp",
          "type": "uint256"
        }
      ],
      "name": "MarketClosed",
      "type": "event"
    },
    {
      "anonymous": false,
      "inputs": [
        {
          "indexed": false,
          "internalType": "enum PredictionMarket.Outcome",
          "name": "outcome",
          "type": "uint8"
        }
      ],
      "name": "MarketResolved",
      "type": "event"
    },
    {
      "anonymous": false,
      "inputs": [
        {
          "indexed": false,
          "internalType": "uint256",
          "name": "yesPool",
          "type": "uint256"
        },
        {
          "indexed": false,
          "internalType": "uint256",
          "name": "noPool",
          "type": "uint256"
        },
        {
          "indexed": false,
          "internalType": "uint256",
          "name": "timestamp",
          "type": "uint256"
        }
      ],
      "name": "OddsUpdated",
      "type": "event"
    },
    {
      "anonymous": false,
      "inputs": [
        {
          "indexed": true,
          "internalType": "address",
          "name": "oracle",
          "type": "address"
        },
        {
          "indexed": false,
          "internalType": "uint256",
          "name": "timestamp",
          "type": "uint256"
        }
      ],
      "name": "OracleVoted",
      "type": "event"
    },
    {
      "anonymous": false,
      "inputs": [
        {
          "indexed": true,
          "internalType": "uint256",
          "name": "leafIndex",
          "type": "uint256"
        },
        {
          "indexed": true,
          "internalType": "bytes32",
          "name": "commitment",
          "type": "bytes32"
        },
        {
          "indexed": false,
          "internalType": "uint256",
          "name": "amount",
          "type": "uint256"
        }
      ],
      "name": "PrivateBetPlaced",
      "type": "event"
    },
    {
      "anonymous": false,
      "inputs": [
        {
          "indexed": true,
          "internalType": "bytes32",
          "name": "nullifierHash",
          "type": "bytes32"
        },
        {
          "indexed": true,
          "internalType": "address",
          "name": "recipient",
          "type": "address"
        },
        {
          "indexed": false,
          "internalType": "uint256",
          "name": "amount",
          "type": "uint256"
        }
      ],
      "name": "PrivateClaimed",
      "type": "event"
    },
    {
      "anonymous": false,
      "inputs": [
        {
          "indexed": true,
          "internalType": "address",
          "name": "user",
          "type": "address"
        },
        {
          "indexed": false,
          "internalType": "uint256",
          "name": "amount",
          "type": "uint256"
        }
      ],
      "name": "RewardClaimed",
      "type": "event"
    },
    {
      "inputs": [],
      "name": "MIN_BET",
      "outputs": [
        {
          "internalType": "uint256",
          "name": "",
          "type": "uint256"
        }
      ],
      "stateMutability": "view",
      "type": "function"
    },
    {
      "inputs": [],
      "name": "ODDS_UPDATE_INTERVAL",
      "outputs": [
        {
          "internalType": "uint256",
          "name": "",
          "type": "uint256"
        }
      ],
      "stateMutability": "view",
      "type": "function"
    },
    {
      "inputs": [],
      "name": "RESOLUTION_WINDOW",
      "outputs": [
        {
          "internalType": "uint256",
          "name": "",
          "type": "uint256"
        }
      ],
      "stateMutability": "view",
      "type": "function"
    },
    {
      "inputs": [],
      "name": "TREE_LEVELS",
      "outputs": [
        {
          "internalType": "uint256",
          "name": "",
          "type": "uint256"
        }
      ],
      "stateMutability": "view",
      "type": "function"
    },
    {
      "inputs": [],
      "name": "bettingDeadline",
      "outputs": [
        {
          "internalType": "uint256",
          "name": "",
          "type": "uint256"
        }
      ],
      "stateMutability": "view",
      "type": "function"
    },
    {
      "inputs": [
        {
          "internalType": "uint256[2]",
          "name": "a",
          "type": "uint256[2]"
        },
        {
          "internalType": "uint256[2][2]",
          "name": "b",
          "type": "uint256[2][2]"
        },
        {
          "internalType": "uint256[2]",
          "name": "c",
          "type": "uint256[2]"
        },
        {
          "internalType": "uint256[4]",
          "name": "input",
          "type": "uint256[4]"
        }
      ],
      "name": "claimWinningsPrivate",
      "outputs": [],
      "stateMutability": "nonpayable",
      "type": "function"
    },
    {
      "inputs": [],
      "name": "closeMarket",
      "outputs": [],
      "stateMutability": "nonpayable",
      "type": "function"
    },
    {
      "inputs": [],
      "name": "creator",
      "outputs": [
        {
          "internalType": "address",
          "name": "",
          "type": "address"
        }
      ],
      "stateMutability": "view",
      "type": "function"
    },
    {
      "inputs": [
        {
          "internalType": "uint256",
          "name": "",
          "type": "uint256"
        }
      ],
      "name": "filledSubtrees",
      "outputs": [
        {
          "internalType": "bytes32",
          "name": "",
          "type": "bytes32"
        }
      ],
      "stateMutability": "view",
      "type": "function"
    },
    {
      "inputs": [],
      "name": "forceResolve",
      "outputs": [],
      "stateMutability": "nonpayable",
      "type": "function"
    },
    {
      "inputs": [],
      "name": "getMarketInfo",
      "outputs": [
        {
          "internalType": "string",
          "name": "_question",
          "type": "string"
        },
        {
          "internalType": "uint256",
          "name": "_bettingDeadline",
          "type": "uint256"
        },
        {
          "internalType": "uint256",
          "name": "_resolutionDeadline",
          "type": "uint256"
        },
        {
          "internalType": "enum PredictionMarket.MarketState",
          "name": "_state",
          "type": "uint8"
        },
        {
          "internalType": "enum PredictionMarket.Outcome",
          "name": "_outcome",
          "type": "uint8"
        },
        {
          "internalType": "uint256",
          "name": "_publicYesPool",
          "type": "uint256"
        },
        {
          "internalType": "uint256",
          "name": "_publicNoPool",
          "type": "uint256"
        },
        {
          "internalType": "uint256",
          "name": "_totalDeposits",
          "type": "uint256"
        }
      ],
      "stateMutability": "view",
      "type": "function"
    },
    {
      "inputs": [],
      "name": "getMarketOracles",
      "outputs": [
        {
          "internalType": "address[]",
          "name": "",
          "type": "address[]"
        }
      ],
      "stateMutability": "view",
      "type": "function"
    },
    {
      "inputs": [
        {
          "internalType": "uint256",
          "name": "leafIndex",
          "type": "uint256"
        }
      ],
      "name": "getMerklePath",
      "outputs": [
        {
          "internalType": "bytes32[20]",
          "name": "pathElements",
          "type": "bytes32[20]"
        },
        {
          "internalType": "uint256[20]",
          "name": "pathIndices",
          "type": "uint256[20]"
        }
      ],
      "stateMutability": "view",
      "type": "function"
    },
    {
      "inputs": [],
      "name": "getOdds",
      "outputs": [
        {
          "internalType": "uint256",
          "name": "yesBps",
          "type": "uint256"
        },
        {
          "internalType": "uint256",
          "name": "noBps",
          "type": "uint256"
        }
      ],
      "stateMutability": "view",
      "type": "function"
    },
    {
      "inputs": [],
      "name": "invalidVotes",
      "outputs": [
        {
          "internalType": "uint256",
          "name": "",
          "type": "uint256"
        }
      ],
      "stateMutability": "view",
      "type": "function"
    },
    {
      "inputs": [
        {
          "internalType": "address",
          "name": "",
          "type": "address"
        }
      ],
      "name": "isMarketOracle",
      "outputs": [
        {
          "internalType": "bool",
          "name": "",
          "type": "bool"
        }
      ],
      "stateMutability": "view",
      "type": "function"
    },
    {
      "inputs": [
        {
          "internalType": "bytes32",
          "name": "",
          "type": "bytes32"
        }
      ],
      "name": "isSpent",
      "outputs": [
        {
          "internalType": "bool",
          "name": "",
          "type": "bool"
        }
      ],
      "stateMutability": "view",
      "type": "function"
    },
    {
      "inputs": [],
      "name": "lastOddsUpdate",
      "outputs": [
        {
          "internalType": "uint256",
          "name": "",
          "type": "uint256"
        }
      ],
      "stateMutability": "view",
      "type": "function"
    },
    {
      "inputs": [
        {
          "internalType": "uint256",
          "name": "",
          "type": "uint256"
        }
      ],
      "name": "leaves",
      "outputs": [
        {
          "internalType": "bytes32",
          "name": "",
          "type": "bytes32"
        }
      ],
      "stateMutability": "view",
      "type": "function"
    },
    {
      "inputs": [
        {
          "internalType": "uint256",
          "name": "",
          "type": "uint256"
        }
      ],
      "name": "marketOracles",
      "outputs": [
        {
          "internalType": "address",
          "name": "",
          "type": "address"
        }
      ],
      "stateMutability": "view",
      "type": "function"
    },
    {
      "inputs": [],
      "name": "nextLeafIndex",
      "outputs": [
        {
          "internalType": "uint256",
          "name": "",
          "type": "uint256"
        }
      ],
      "stateMutability": "view",
      "type": "function"
    },
    {
      "inputs": [],
      "name": "noVotes",
      "outputs": [
        {
          "internalType": "uint256",
          "name": "",
          "type": "uint256"
        }
      ],
      "stateMutability": "view",
      "type": "function"
    },
    {
      "inputs": [],
      "name": "oracleRegistry",
      "outputs": [
        {
          "internalType": "contract OracleRegistry",
          "name": "",
          "type": "address"
        }
      ],
      "stateMutability": "view",
      "type": "function"
    },
    {
      "inputs": [
        {
          "internalType": "address",
          "name": "",
          "type": "address"
        }
      ],
      "name": "oracleVotes",
      "outputs": [
        {
          "internalType": "enum PredictionMarket.Outcome",
          "name": "vote",
          "type": "uint8"
        },
        {
          "internalType": "bool",
          "name": "hasVoted",
          "type": "bool"
        }
      ],
      "stateMutability": "view",
      "type": "function"
    },
    {
      "inputs": [],
      "name": "outcome",
      "outputs": [
        {
          "internalType": "enum PredictionMarket.Outcome",
          "name": "",
          "type": "uint8"
        }
      ],
      "stateMutability": "view",
      "type": "function"
    },
    {
      "inputs": [
        {
          "internalType": "bytes32",
          "name": "commitment",
          "type": "bytes32"
        },
        {
          "internalType": "enum PredictionMarket.Choice",
          "name": "choice",
          "type": "uint8"
        }
      ],
      "name": "placeBetPrivate",
      "outputs": [],
      "stateMutability": "payable",
      "type": "function"
    },
    {
      "inputs": [],
      "name": "poseidon",
      "outputs": [
        {
          "internalType": "contract IPoseidon",
          "name": "",
          "type": "address"
        }
      ],
      "stateMutability": "view",
      "type": "function"
    },
    {
      "inputs": [],
      "name": "publicNoPool",
      "outputs": [
        {
          "internalType": "uint256",
          "name": "",
          "type": "uint256"
        }
      ],
      "stateMutability": "view",
      "type": "function"
    },
    {
      "inputs": [],
      "name": "publicYesPool",
      "outputs": [
        {
          "internalType": "uint256",
          "name": "",
          "type": "uint256"
        }
      ],
      "stateMutability": "view",
      "type": "function"
    },
    {
      "inputs": [],
      "name": "question",
      "outputs": [
        {
          "internalType": "string",
          "name": "",
          "type": "string"
        }
      ],
      "stateMutability": "view",
      "type": "function"
    },
    {
      "inputs": [],
      "name": "resolutionDeadline",
      "outputs": [
        {
          "internalType": "uint256",
          "name": "",
          "type": "uint256"
        }
      ],
      "stateMutability": "view",
      "type": "function"
    },
    {
      "inputs": [
        {
          "internalType": "bytes32",
          "name": "",
          "type": "bytes32"
        }
      ],
      "name": "roots",
      "outputs": [
        {
          "internalType": "bool",
          "name": "",
          "type": "bool"
        }
      ],
      "stateMutability": "view",
      "type": "function"
    },
    {
      "inputs": [],
      "name": "state",
      "outputs": [
        {
          "internalType": "enum PredictionMarket.MarketState",
          "name": "",
          "type": "uint8"
        }
      ],
      "stateMutability": "view",
      "type": "function"
    },
    {
      "inputs": [
        {
          "internalType": "enum PredictionMarket.Outcome",
          "name": "_outcome",
          "type": "uint8"
        }
      ],
      "name": "submitResolution",
      "outputs": [],
      "stateMutability": "nonpayable",
      "type": "function"
    },
    {
      "inputs": [],
      "name": "totalDeposits",
      "outputs": [
        {
          "internalType": "uint256",
          "name": "",
          "type": "uint256"
        }
      ],
      "stateMutability": "view",
      "type": "function"
    },
    {
      "inputs": [
        {
          "internalType": "uint256",
          "name": "",
          "type": "uint256"
        },
        {
          "internalType": "uint256",
          "name": "",
          "type": "uint256"
        }
      ],
      "name": "tree",
      "outputs": [
        {
          "internalType": "bytes32",
          "name": "",
          "type": "bytes32"
        }
      ],
      "stateMutability": "view",
      "type": "function"
    },
    {
      "inputs": [],
      "name": "updateOdds",
      "outputs": [],
      "stateMutability": "nonpayable",
      "type": "function"
    },
    {
      "inputs": [],
      "name": "verifier",
      "outputs": [
        {
          "internalType": "contract IVerifier",
          "name": "",
          "type": "address"
        }
      ],
      "stateMutability": "view",
      "type": "function"
    },
    {
      "inputs": [
        {
          "internalType": "uint256",
          "name": "",
          "type": "uint256"
        }
      ],
      "name": "votedOracles",
      "outputs": [
        {
          "internalType": "address",
          "name": "",
          "type": "address"
        }
      ],
      "stateMutability": "view",
      "type": "function"
    },
    {
      "inputs": [],
      "name": "yesVotes",
      "outputs": [
        {
          "internalType": "uint256",
          "name": "",
          "type": "uint256"
        }
      ],
      "stateMutability": "view",
      "type": "function"
    },
    {
      "inputs": [
        {
          "internalType": "uint256",
          "name": "",
          "type": "uint256"
        }
      ],
      "name": "zeros",
      "outputs": [
        {
          "internalType": "bytes32",
          "name": "",
          "type": "bytes32"
        }
      ],
      "stateMutability": "view",
      "type": "function"
    }
  ],
  "bytecode": "0x6101006040523480156200001257600080fd5b5060405162002b7b38038062002b7b83398101604081905262000035916200054f565b82516003146200008c5760405162461bcd60e51b815260206004820152601b60248201527f4d75737420686176652065786163746c792033206f7261636c6573000000000060448201526064015b60405180910390fd5b6001600160a01b0386166080523360a0526000620000ab8682620006fc565b50620000b88442620007c8565b60c0819052620000cd906201518090620007c8565b60e0526001805460ff1916905542600255601180546001600160a01b038481166001600160a01b031992831617909255601280549284169290911691909117905560005b600381101562000332576080516001600160a01b031663a97e5c93858381518110620001415762000141620007f0565b60200260200101516040518263ffffffff1660e01b81526004016200017591906001600160a01b0391909116815260200190565b602060405180830381865afa15801562000193573d6000803e3d6000fd5b505050506040513d601f19601f82011682018060405250810190620001b9919062000806565b620002075760405162461bcd60e51b815260206004820152601560248201527f4f7261636c65206e6f7420726567697374657265640000000000000000000000604482015260640162000083565b60106000858381518110620002205762000220620007f0565b6020908102919091018101516001600160a01b031682528101919091526040016000205460ff1615620002895760405162461bcd60e51b815260206004820152601060248201526f4475706c6963617465206f7261636c6560801b604482015260640162000083565b600f848281518110620002a057620002a0620007f0565b60209081029190910181015182546001808201855560009485529284200180546001600160a01b0319166001600160a01b0390921691909117905585519091601091879085908110620002f757620002f7620007f0565b6020908102919091018101516001600160a01b03168252810191909152604001600020805460ff191691151591909117905560010162000111565b506200033d62000349565b5050505050506200087e565b6000805b60148110156200041e5781602882601481106200036e576200036e620007f0565b015581601482818110620003865762000386620007f0565b0155620003926200043a565b828152602081018390526012546040516314d2f97b60e11b81526001600160a01b03909116906329a5f2f690620003ce90849060040162000831565b602060405180830381865afa158015620003ec573d6000803e3d6000fd5b505050506040513d601f19601f8201168201806040525081019062000412919062000864565b9250506001016200034d565b506000908152603d60205260409020805460ff19166001179055565b60405180604001604052806002906020820280368337509192915050565b80516001600160a01b03811681146200047057600080fd5b919050565b634e487b7160e01b600052604160045260246000fd5b604051601f8201601f191681016001600160401b0381118282101715620004b657620004b662000475565b604052919050565b600082601f830112620004d057600080fd5b815160206001600160401b03821115620004ee57620004ee62000475565b8160051b620004ff8282016200048b565b92835284810182019282810190878511156200051a57600080fd5b83870192505b848310156200054457620005348362000458565b8252918301919083019062000520565b979650505050505050565b60008060008060008060c087890312156200056957600080fd5b620005748762000458565b602088810151919750906001600160401b03808211156200059457600080fd5b818a0191508a601f830112620005a957600080fd5b815181811115620005be57620005be62000475565b620005d2601f8201601f191685016200048b565b8181528c85838601011115620005e757600080fd5b60005b8281101562000607578481018601518282018701528501620005ea565b5060009181019094015260408a015160608b01519398509650808311156200062e57600080fd5b50506200063e89828a01620004be565b9350506200064f6080880162000458565b91506200065f60a0880162000458565b90509295509295509295565b600181811c908216806200068057607f821691505b602082108103620006a157634e487b7160e01b600052602260045260246000fd5b50919050565b601f821115620006f7576000816000526020600020601f850160051c81016020861015620006d25750805b601f850160051c820191505b81811015620006f357828155600101620006de565b5050505b505050565b81516001600160401b0381111562000718576200071862000475565b62000730816200072984546200066b565b84620006a7565b602080601f8311600181146200076857600084156200074f5750858301515b600019600386901b1c1916600185901b178555620006f3565b600085815260208120601f198616915b82811015620007995788860151825594840194600190910190840162000778565b5085821015620007b85787850151600019600388901b60f8161c191681555b5050505050600190811b01905550565b80820180821115620007ea57634e487b7160e01b600052601160045260246000fd5b92915050565b634e487b7160e01b600052603260045260246000fd5b6000602082840312156200081957600080fd5b815180151581146200082a57600080fd5b9392505050565b60408101818360005b60028110156200085b5781518352602092830192909101906001016200083a565b50505092915050565b6000602082840312156200087757600080fd5b5051919050565b60805160a05160c05160e05161228b620008f06000396000818161049d0152818161082e015281816109730152610cde01526000818161033b0152818161080d01528181610f1301526115890152600061025d01526000818161041f015281816117930152611813015261228b6000f3fe6080604052600436106102465760003560e01c806364cc7e0b11610139578063c19d93fb116100b6578063d94286061161007a578063d94286061461074c578063e28c4e6614610761578063e5285dcc14610777578063e8295588146107a7578063f178e47c146107c7578063fb286c65146107e757600080fd5b8063c19d93fb146106bb578063c511ed5e146106d5578063c62b919e146106ea578063d455a79d1461070a578063d8e55ff71461073757600080fd5b80637d0b99b8116100fd5780637d0b99b8146106295780637d8820971461063f5780639533151014610655578063ae6dead714610675578063b5b47f42146106a557600080fd5b806364cc7e0b1461056f5780636540742f146105915780636e4d6517146105ac578063734c8544146105da57806378c2d335146105f157600080fd5b80633fad9ae0116101c75780635347f96e1161018b5780635347f96e146104bf578063573a6830146105065780635b78677c1461051c5780635cc46f611461053c5780636007bb701461054f57600080fd5b80633fad9ae0146103eb5780634bb93ab11461040d5780634c5be574146104415780634c8d1eda1461046b578063528f734f1461048b57600080fd5b806327793f871161020e57806327793f871461035d5780632a894a73146103895780632b7ac3f31461039e57806330b75edc146103be57806333241d61146103d457600080fd5b806302d05d3f1461024b5780630be4f4221461029c57806321cb8e92146102c057806323341a05146103005780632468698d14610329575b600080fd5b34801561025757600080fd5b5061027f7f000000000000000000000000000000000000000000000000000000000000000081565b6040516001600160a01b0390911681526020015b60405180910390f35b3480156102a857600080fd5b506102b2603c5481565b604051908152602001610293565b3480156102cc57600080fd5b506102f06102db366004611c97565b60106020526000908152604090205460ff1681565b6040519015158152602001610293565b34801561030c57600080fd5b506103156107fd565b604051610293989796959493929190611d41565b34801561033557600080fd5b506102b27f000000000000000000000000000000000000000000000000000000000000000081565b34801561036957600080fd5b5060015461037c90610100900460ff1681565b6040516102939190611da1565b34801561039557600080fd5b506102b2601481565b3480156103aa57600080fd5b5060115461027f906001600160a01b031681565b3480156103ca57600080fd5b506102b260045481565b3480156103e057600080fd5b506103e961091a565b005b3480156103f757600080fd5b50610400610a6c565b6040516102939190611db4565b34801561041957600080fd5b5061027f7f000000000000000000000000000000000000000000000000000000000000000081565b34801561044d57600080fd5b50610456610afa565b60408051928352602083019190915201610293565b34801561047757600080fd5b5061027f610486366004611dc7565b610b55565b34801561049757600080fd5b506102b27f000000000000000000000000000000000000000000000000000000000000000081565b3480156104cb57600080fd5b506104f86104da366004611c97565b600a6020526000908152604090205460ff8082169161010090041682565b604051610293929190611de0565b34801561051257600080fd5b506102b2600e5481565b34801561052857600080fd5b506103e9610537366004611dfc565b610b7f565b6103e961054a366004611e1d565b610eb9565b34801561055b57600080fd5b506103e961056a366004611e73565b6110f2565b34801561057b57600080fd5b506105846113a2565b6040516102939190611ecd565b34801561059d57600080fd5b506102b2662386f26fc1000081565b3480156105b857600080fd5b506105cc6105c7366004611dc7565b611404565b604051610293929190611f1a565b3480156105e657600080fd5b506102b26201518081565b3480156105fd57600080fd5b506102b261060c366004611f78565b603f60209081526000928352604080842090915290825290205481565b34801561063557600080fd5b506102b260025481565b34801561064b57600080fd5b506102b260055481565b34801561066157600080fd5b5061027f610670366004611dc7565b611526565b34801561068157600080fd5b506102f0610690366004611dc7565b603d6020526000908152604090205460ff1681565b3480156106b157600080fd5b506102b2600d5481565b3480156106c757600080fd5b5060015461037c9060ff1681565b3480156106e157600080fd5b506103e9611536565b3480156106f657600080fd5b5060125461027f906001600160a01b031681565b34801561071657600080fd5b506102b2610725366004611dc7565b603e6020526000908152604090205481565b34801561074357600080fd5b506103e9611645565b34801561075857600080fd5b506102b2607881565b34801561076d57600080fd5b506102b260035481565b34801561078357600080fd5b506102f0610792366004611dc7565b60136020526000908152604090205460ff1681565b3480156107b357600080fd5b506102b26107c2366004611dc7565b611696565b3480156107d357600080fd5b506102b26107e2366004611dc7565b6116ad565b3480156107f357600080fd5b506102b2600c5481565b60606000806000806000806000807f00000000000000000000000000000000000000000000000000000000000000007f0000000000000000000000000000000000000000000000000000000000000000600160009054906101000a900460ff1660018054906101000a900460ff1660035460045460055487805461088090611f9a565b80601f01602080910402602001604051908101604052809291908181526020018280546108ac90611f9a565b80156108f95780601f106108ce576101008083540402835291602001916108f9565b820191906000526020600020905b8154815290600101906020018083116108dc57829003601f168201915b50505050509750975097509750975097509750975097509091929394959697565b6001805460ff16600381111561093257610932611d0d565b146109715760405162461bcd60e51b815260206004820152600a602482015269139bdd0818db1bdcd95960b21b60448201526064015b60405180910390fd5b7f000000000000000000000000000000000000000000000000000000000000000042116109e05760405162461bcd60e51b815260206004820152601a60248201527f5265736f6c7574696f6e2077696e646f77206e6f74206f7665720000000000006044820152606401610968565b600b54610a245760405162461bcd60e51b8152602060048201526012602482015271139bc81d9bdd195cc81cdd589b5a5d1d195960721b6044820152606401610968565b600d54600c5410158015610a3c5750600e54600c5410155b15610a4d57610a4b60016116bd565b565b600e54600d5410610a6257610a4b60026116bd565b610a4b60036116bd565b60008054610a7990611f9a565b80601f0160208091040260200160405190810160405280929190818152602001828054610aa590611f9a565b8015610af25780601f10610ac757610100808354040283529160200191610af2565b820191906000526020600020905b815481529060010190602001808311610ad557829003601f168201915b505050505081565b6000806000600454600354610b0f9190611fea565b905080600003610b255750611388928392509050565b80600354612710610b369190611ffd565b610b40919061202a565b9250610b4e8361271061203e565b9150509091565b600f8181548110610b6557600080fd5b6000918252602090912001546001600160a01b0316905081565b6001805460ff166003811115610b9757610b97611d0d565b14610bd85760405162461bcd60e51b815260206004820152601160248201527013585c9ad95d081b9bdd0818db1bdcd959607a1b6044820152606401610968565b3360009081526010602052604090205460ff16610c375760405162461bcd60e51b815260206004820152601d60248201527f4e6f7420616e206f7261636c6520666f722074686973206d61726b65740000006044820152606401610968565b336000908152600a6020526040902054610100900460ff1615610c8c5760405162461bcd60e51b815260206004820152600d60248201526c105b1c9958591e481d9bdd1959609a1b6044820152606401610968565b6000816003811115610ca057610ca0611d0d565b03610cdc5760405162461bcd60e51b815260206004820152600c60248201526b496e76616c696420766f746560a01b6044820152606401610968565b7f00000000000000000000000000000000000000000000000000000000000000004210610d4b5760405162461bcd60e51b815260206004820152601860248201527f5265736f6c7574696f6e2077696e646f7720636c6f73656400000000000000006044820152606401610968565b6040518060400160405280826003811115610d6857610d68611d0d565b815260016020918201819052336000908152600a90925260409091208251815491929091839160ff1990911690836003811115610da757610da7611d0d565b02179055506020919091015181549015156101000261ff0019909116179055600b8054600181810183556000929092527f0175b7a638427703f0dbe7bb9bbf987a2551717b34e79f33b5b1008d1fa01db90180546001600160a01b03191633179055816003811115610e1b57610e1b611d0d565b03610e3a57600c8054906000610e3083612051565b9190505550610e79565b6002816003811115610e4e57610e4e611d0d565b03610e6357600d8054906000610e3083612051565b600e8054906000610e7383612051565b91905055505b60405142815233907f4a099da1c77367351ca05fb31cb2a13ed49d950f3c6a36a98271fc1040555b049060200160405180910390a2610eb66118b4565b50565b600060015460ff166003811115610ed257610ed2611d0d565b14610f115760405162461bcd60e51b815260206004820152600f60248201526e26b0b935b2ba103737ba1037b832b760891b6044820152606401610968565b7f00000000000000000000000000000000000000000000000000000000000000004210610f775760405162461bcd60e51b815260206004820152601460248201527310995d1d1a5b99c81c195c9a5bd908195b99195960621b6044820152606401610968565b662386f26fc10000341015610fbe5760405162461bcd60e51b815260206004820152600d60248201526c10995d081d1bdbc81cdb585b1b609a1b6044820152606401610968565b610fca6014600261214e565b603c54106110065760405162461bcd60e51b8152602060048201526009602482015268151c995948199d5b1b60ba1b6044820152606401610968565b603c54611012836118ff565b600082600181111561102657611026611d0d565b0361106157346006600082825461103d9190611fea565b9250508190555034600860008282546110569190611fea565b909155506110929050565b34600760008282546110739190611fea565b92505081905550346009600082825461108c9190611fea565b90915550505b34600560008282546110a49190611fea565b909155506110b29050611aae565b82817fac00dc31d86d7d6f8f9c88e0e9d7e8fab916f4b911147b4eade107f005593e62346040516110e591815260200190565b60405180910390a3505050565b600260015460ff16600381111561110b5761110b611d0d565b1461114e5760405162461bcd60e51b815260206004820152601360248201527213585c9ad95d081b9bdd081c995cdbdb1d9959606a1b6044820152606401610968565b8035602082013560006040840135600181111561116d5761116d611d0d565b6000848152603d602052604090205490915060608501359060ff166111ca5760405162461bcd60e51b8152602060048201526013602482015272125b9d985b1a590813595c9adb19481c9bdbdd606a1b6044820152606401610968565b60008381526013602052604090205460ff16156112195760405162461bcd60e51b815260206004820152600d60248201526c105b1c9958591e481cdc195b9d609a1b6044820152606401610968565b601154604051635fe8c13b60e01b81526001600160a01b0390911690635fe8c13b9061124f908b908b908b908b90600401612170565b602060405180830381865afa15801561126c573d6000803e3d6000fd5b505050506040513d601f19601f8201168201806040525081019061129091906121bc565b6112cf5760405162461bcd60e51b815260206004820152601060248201526f24b73b30b634b2102d2590383937b7b360811b6044820152606401610968565b6000838152601360205260408120805460ff191660011790556112f28383611b4b565b9050600081116113325760405162461bcd60e51b815260206004820152600b60248201526a4e6f2077696e6e696e677360a81b6044820152606401610968565b604051339082156108fc029083906000818181858888f1935050505015801561135f573d6000803e3d6000fd5b50604051818152339085907feca729a2e507e7a9bafccdd19d1bf03b84c8e2611338d44935a5535c0ab4f9c89060200160405180910390a3505050505050505050565b6060600f8054806020026020016040519081016040528092919081815260200182805480156113fa57602002820191906000526020600020905b81546001600160a01b031681526001909101906020018083116113dc575b5050505050905090565b61140c611c5a565b611414611c5a565b603c54831061145a5760405162461bcd60e51b8152602060048201526012602482015271092dcecc2d8d2c840d8cac2cc40d2dcc8caf60731b6044820152606401610968565b8260005b601481101561151f576114726002836121de565b8382601481106114845761148461215a565b602002015260006114966002846121de565b156114ab576114a660018461203e565b6114b6565b6114b6836001611fea565b6000838152603f60209081526040808320848452909152902054909150806114f057602883601481106114eb576114eb61215a565b015490505b808684601481106115035761150361215a565b602002015261151360028561202a565b9350505060010161145e565b5050915091565b600b8181548110610b6557600080fd5b600060015460ff16600381111561154f5761154f611d0d565b146115875760405162461bcd60e51b81526020600482015260086024820152672737ba1037b832b760c11b6044820152606401610968565b7f00000000000000000000000000000000000000000000000000000000000000004210156115f75760405162461bcd60e51b815260206004820152601860248201527f42657474696e6720706572696f64206e6f7420656e64656400000000000000006044820152606401610968565b6001805460ff1916811790556006546003556007546004556040514281527f9dc30b8eda31a6a144e092e5de600955523a6a925cc15cc1d1b9b4872cfa6155906020015b60405180910390a1565b60786002546116549190611fea565b42101561168e5760405162461bcd60e51b81526020600482015260086024820152672a37b79039b7b7b760c11b6044820152606401610968565b610a4b611aae565b602881601481106116a657600080fd5b0154905081565b601481601481106116a657600080fd5b6001805482919061ff0019166101008360038111156116de576116de611d0d565b02179055506001805460ff1916600217905560005b600b54811015611879576000600b82815481106117125761171261215a565b6000918252602090912001546001600160a01b0316905082600381111561173b5761173b611d0d565b6001600160a01b0382166000908152600a602052604090205460ff16600381111561176857611768611d0d565b146117f4576040516302fb4d8560e01b81526001600160a01b038281166004830152600a60248301527f000000000000000000000000000000000000000000000000000000000000000016906302fb4d8590604401600060405180830381600087803b1580156117d757600080fd5b505af11580156117eb573d6000803e3d6000fd5b50505050611870565b604051634234128760e01b81526001600160a01b0382811660048301527f00000000000000000000000000000000000000000000000000000000000000001690634234128790602401600060405180830381600087803b15801561185757600080fd5b505af115801561186b573d6000803e3d6000fd5b505050505b506001016116f3565b507f94e5f71d5001613eb5e4ad876acb1da127582270c692c34fbcf810be21728b1d816040516118a99190611da1565b60405180910390a150565b600b5460028110156118c35750565b6002600c54106118d757610eb660016116bd565b6002600d54106118eb57610eb660026116bd565b6002600e5410610eb657610eb660036116bd565b603c80546000818152603e602090815260408083208690557fe9090a6e551363283803e59daf1c144cd0ac55c420ac8519a53d83ef396a73b39091528120849055825491929061194e83612051565b90915550829050600080805b6014811015611a8e5761196e6002866121de565b6000036119aa578392506028816014811061198b5761198b61215a565b0154915083601482601481106119a3576119a361215a565b01556119c5565b601481601481106119bd576119bd61215a565b015492508391505b6119cd611c79565b838152602081018390526012546040516314d2f97b60e11b81526001600160a01b03909116906329a5f2f690611a079084906004016121f2565b602060405180830381865afa158015611a24573d6000803e3d6000fd5b505050506040513d601f19601f82011682018060405250810190611a489190612223565b9450611a5560028761202a565b955084603f6000611a67856001611fea565b8152602080820192909252604090810160009081208a82529092529020555060010161195a565b5050506000908152603d60205260409020805460ff191660011790555050565b6078600254611abd9190611fea565b4210610a4b5760085460036000828254611ad79190611fea565b909155505060095460048054600090611af1908490611fea565b9091555050600060088190556009554260028190556003546004546040805192835260208301919091528101919091527fdce2d6bbe259ba5e39cd5dce275314ea2c81f9977d2617b4185830cbbb0dff109060600161163b565b60006003600154610100900460ff166003811115611b6b57611b6b611d0d565b03611b77575080611c54565b600154610100900460ff166003811115611b9357611b93611d0d565b836001811115611ba557611ba5611d0d565b611bb090600161223c565b60ff166003811115611bc457611bc4611d0d565b6003811115611bd557611bd5611d0d565b03611c50576000600754600654611bec9190611fea565b9050600060018054610100900460ff166003811115611c0d57611c0d611d0d565b14611c1a57600754611c1e565b6006545b905080600003611c32578392505050611c54565b80611c3d8386611ffd565b611c47919061202a565b92505050611c54565b5060005b92915050565b6040518061028001604052806014906020820280368337509192915050565b60405180604001604052806002906020820280368337509192915050565b600060208284031215611ca957600080fd5b81356001600160a01b0381168114611cc057600080fd5b9392505050565b6000815180845260005b81811015611ced57602081850181015186830182015201611cd1565b506000602082860101526020601f19601f83011685010191505092915050565b634e487b7160e01b600052602160045260246000fd5b60048110610eb657634e487b7160e01b600052602160045260246000fd5b6000610100808352611d558184018c611cc7565b915050886020830152876040830152611d6d87611d23565b866060830152611d7c86611d23565b8560808301528460a08301528360c08301528260e08301529998505050505050505050565b60208101611dae83611d23565b91905290565b602081526000611cc06020830184611cc7565b600060208284031215611dd957600080fd5b5035919050565b60408101611ded84611d23565b92815290151560209091015290565b600060208284031215611e0e57600080fd5b813560048110611cc057600080fd5b60008060408385031215611e3057600080fd5b82359150602083013560028110611e4657600080fd5b809150509250929050565b8060408101831015611c5457600080fd5b8060808101831015611c5457600080fd5b6000806000806101808587031215611e8a57600080fd5b611e948686611e51565b9350611ea38660408701611e62565b9250611eb28660c08701611e51565b9150611ec2866101008701611e62565b905092959194509250565b6020808252825182820181905260009190848201906040850190845b81811015611f0e5783516001600160a01b031683529284019291840191600101611ee9565b50909695505050505050565b6105008101818460005b6014811015611f43578151835260209283019290910190600101611f24565b50505061028082018360005b6014811015611f6e578151835260209283019290910190600101611f4f565b5050509392505050565b60008060408385031215611f8b57600080fd5b50508035926020909101359150565b600181811c90821680611fae57607f821691505b602082108103611fce57634e487b7160e01b600052602260045260246000fd5b50919050565b634e487b7160e01b600052601160045260246000fd5b80820180821115611c5457611c54611fd4565b8082028115828204841417611c5457611c54611fd4565b634e487b7160e01b600052601260045260246000fd5b60008261203957612039612014565b500490565b81810381811115611c5457611c54611fd4565b60006001820161206357612063611fd4565b5060010190565b600181815b808511156120a557816000190482111561208b5761208b611fd4565b8085161561209857918102915b93841c939080029061206f565b509250929050565b6000826120bc57506001611c54565b816120c957506000611c54565b81600181146120df57600281146120e957612105565b6001915050611c54565b60ff8411156120fa576120fa611fd4565b50506001821b611c54565b5060208310610133831016604e8410600b8410161715612128575081810a611c54565b612132838361206a565b806000190482111561214657612146611fd4565b029392505050565b6000611cc083836120ad565b634e487b7160e01b600052603260045260246000fd5b61018081016040808784378083018660005b600281101561219f57838284379183019190830190600101612182565b505050808560c08501375060808361010084013795945050505050565b6000602082840312156121ce57600080fd5b81518015158114611cc057600080fd5b6000826121ed576121ed612014565b500690565b60408101818360005b600281101561221a5781518352602092830192909101906001016121fb565b50505092915050565b60006020828403121561223557600080fd5b5051919050565b60ff8181168382160190811115611c5457611c54611fd456fea2646970667358221220f39d5f22e9e8dba6b92e7e3a2ca3cda5b81503f061106b888f209fd01356c92764736f6c63430008180033",
  "linkReferences": {},
  "deployedLinkReferences": {}
}